:020000040800F2
:1000000000800220910500082D0C00083B0C000820
:10001000410C0008470C00084D0C000800000000CF
:1000200000000000000000000000000051850008F2
:10003000530C00080000000091870008F9870008B1
:10004000E1050008E1050008E1050008E1050008F8
:10005000E1050008E1050008E1050008E1050008E8
:10006000E1050008E1050008E1050008E1050008D8
:10007000E1050008E1050008E1050008E1050008C8
:10008000E1050008E1050008E1050008E1050008B8
:10009000E1050008E1050008E1050008E1050008A8
:1000A000E1050008610C0008E1050008E105000811
:1000B000E1050008E105000800000000E105000876
:1000C000E1050008E1050008E1050008E105000878
:1000D000E1050008E1050008E1050008E105000868
:1000E000E1050008E1050008000000000000000034
:1000F0000000000000000000000000000000000000
:1001000000000000E105000800000000E105000813
:10011000E105000800000000E10500080000000003
:10012000E1050008E1050008E1050008E105000817
:10013000E1050008E1050008E105000800000000F5
:10014000E1050008E1050008E1050008E1050008F7
:10015000E1050008E1050008E1050008E1050008E7
:10016000E1050008E1050008E105000800000000C5
:1001700000000000E1050008000000000000000091
:10018000E1050008E1050008E1050008E1050008B7
:04019000E10500087D
:1001A00010B5054C237833B9044B13B10448AFF3B1
:1001B00000800123237010BD4801002000000000D2
:1001C00054A6000808B5034B1BB103490348AFF31D
:1001D000008008BD000000004C01002054A600086B
:1001E00001F0FF01102A2BDB10F0070F08D010F8E8
:1001F000013B013A8B422DD010F0070F42B3F6D1EC
:10020000F0B441EA012141EA014122F007047FF004
:1002100000070023F0E80256083C85EA010586EA5B
:10022000010685FA47F5A3FA87F586FA47F6A5FA97
:1002300087F68EB9EED1F0BC01F0FF0102F00702A3
:1002400032B110F8013B013A83EA010313B1F8D14E
:100250000020704701387047002D06BF354603382F
:10026000073815F0010F07D1013015F4807F02BF68
:10027000013015F4C03F0130F0BC0138704700BFB9
:1002800053B94AB9002908BF00281CBF4FF0FF31FD
:100290004FF0FF3000F07AB9ADF1080C6DE904CEF3
:1002A00000F006F8DDF804E0DDE9022304B0704751
:1002B0002DE9F0478C460D460446089E002B51D18F
:1002C0008A4217466DD9B2FA82FEBEF1000F0BD0FA
:1002D000CEF1200C01FA0EF520FA0CFC02FA0EF712
:1002E0004CEA050C00FA0EF44FEA174A250CBCFB49
:1002F000FAF81FFA87F90AFB18CC45EA0C4508FB07
:1003000009F3AB420AD9ED1908F1FF3280F02381DD
:10031000AB4240F22081A8F102083D44ED1AA4B29C
:10032000B5FBFAF00AFB105544EA054400FB09F955
:10033000A14509D9E41900F1FF3380F00A81A145F4
:1003400040F2078102383C44A4EB090440EA08402B
:100350000021002E61D024FA0EF400233460736073
:10036000BDE8F0878B4207D9002E54D0002186E8E3
:1003700021000846BDE8F087B3FA83F1002940F078
:100380008E80AB4202D3824200F2FA80841A65EB7F
:1003900003050120AC46002E3FD086E81010BDE8D2
:1003A000F08712B90127B7FBF2F7B7FA87FEBEF163
:1003B000000F34D1EB1B3A0C1FFA87FC0121B3FB71
:1003C000F2F8250C02FB183345EA03450CFB08F351
:1003D000AB4207D9ED1908F1FF3002D2AB4200F26F
:1003E000D1808046ED1AA3B2B5FBF2F002FB1055A6
:1003F00043EA05440CFB00FCA44507D9E41900F1CD
:10040000FF3302D2A44500F2B8801846A4EB0C04D6
:1004100040EA08409DE731463046BDE8F087CEF11E
:10042000200405FA0EF307FA0EF720FA04F83A0C46
:1004300025FA04F448EA0308B4FBF2F14FEA184540
:1004400002FB11441FFA87FC45EA044501FB0CF34B
:10045000AB4200FA0EF409D9ED1901F1FF3080F03A
:100460008A80AB4240F2878002393D44EB1A1FFA82
:1004700088F5B3FBF2F002FB103345EA034500FBBD
:100480000CF3AB4207D9ED1900F1FF386FD2AB4244
:100490006DD902383D44EB1A40EA01418FE7C1F1C2
:1004A000200722FA07F88B4005FA01F448EA030313
:1004B00020FA07FE4FEA134CFD404EEA040EB5FB4E
:1004C000FCF94FEA1E440CFB19551FFA83F844EA65
:1004D000054509FB08F4AC4202FA01F200FA01FA00
:1004E00008D9ED1809F1FF3043D2AC4241D9A9F146
:1004F00002091D442D1B1FFA8EFEB5FBFCF00CFB00
:1005000010554EEA054400FB08F8A04507D9E41849
:1005100000F1FF3529D2A04527D902381C4440EA12
:100520000940A4EB0804A0FB02894C45C6464D4691
:1005300015D312D056B1BAEB0E0364EB050404FADE
:1005400007F7CB401F43CC40376074600021BDE803
:10055000F0871846F8E69046E0E6C245EAD2B8EBE6
:10056000020E69EB03050138E4E72846D7E7404669
:1005700091E78146BEE7014678E702383C4445E70B
:10058000084608E7A8F102083D442BE7704700BF82
:10059000DFF834D0002103E00C4B5B5843500431AA
:1005A0000B480C4B42189A42F6D30B4A02E0002348
:1005B00042F8043B094B9A42F9D304F0A1F909F03F
:1005C000FFFB00F043F8FEE7008002205CA7000874
:1005D000000000204801002048010020F879002098
:1005E000FEE7000080B584B000AF7860114B1B6857
:1005F000002B02D10F4B104A1A600E4B1B68FB6098
:100600000C4B1A687B6813446A46934207D909F079
:10061000D1FB02460C2313604FF0FF3306E0054B7D
:100620001A687B681344034A1360FB681846103746
:10063000BD4680BD64010020F879002080B400AF81
:1006400000BFBD465DF8047B70470000B0B588B0C0
:1006500002AF07F0A1FD02462E4B1A6004F086F9A6
:1006600000F0F6F800F096F900F064F905E00122D8
:1006700020214FF0904004F0EBFC0221002003F019
:1006800001FE0346002BF2D100220C21192008F0B4
:1006900069F90246204B1A60012008F0D5F902469C
:1006A0001E4B1A601C4B1B68002B32D01B4B1B6867
:1006B000002B2ED01A4B0193012300930023A0227C
:1006C0001849194808F0BEFC184B01930123009308
:1006D0000023C8221649174808F0B4FC134B0193B5
:1006E000012300930023C8221349144808F0AAFCF0
:1006F000134B3C1D1D460FCD0FC42B6823603B1DC3
:100700000021184607F0F2FB02460E4B1A6007F074
:10071000E6FBFEE7D078002068010020D4780020B6
:100720006C0100206CA60008490700087001002039
:1007300074A600088507000884A60008D9070008E9
:100740009CA60008C878002080B584B000AF78600F
:100750007D23FB6008F03EFF0346BB6007F1080302
:10076000F968184608F098FD20214FF0904004F0F9
:1007700087FC07F011FD0246014B1A60EEE700BF4F
:10078000CC78002080B588B000AF78606423FB612E
:1007900008F020FF0346BB6008F072FE07F110036B
:1007A0001A460221002003F063FE07F11003FB60EC
:1007B00008F074FE074B186807F10C0100234FF096
:1007C000FF3208F059F907F10803F969184608F0F3
:1007D00063FDE1E76801002080B58EB002AF78606C
:1007E0000023FB6007F1100300221A605A609A6030
:1007F000DA601A619A82134B1B6807F128014FF0E7
:10080000FF32184608F032FA08F03AFE07F10C03FE
:10081000FB62BB6A1A68BB6A04331968BB6A083397
:100820001B6807F10C0000930B46074909F000FB19
:100830000A231A22F96A054806F06AFE08F02EFE1D
:10084000D9E700BF68010020B0A60008D8780020D2
:1008500080B5B0B000AF07F17C03442200211846F8
:1008600009F0DDFA07F1680300221A605A609A6005
:10087000DA601A613B4668220021184609F0CFFA77
:100880000223FB674FF48073C7F888304023C7F812
:100890008C300223C7F8A4300223C7F8A830012304
:1008A000C7F8AC300A23C7F8B0300723C7F8B43014
:1008B0000223C7F8B8300223C7F8BC3007F17C0325
:1008C000184605F025FA0346002B01D000F0E6F8A3
:1008D0000F23BB660323FB6600233B6700237B6774
:1008E0000023BB6707F168030421184605F0FEFDED
:1008F0000346002B01D000F0D1F842233B600023D7
:100900007B6200237B633B46184606F025F80346CE
:10091000002B01D000F0C2F84FF4007005F0A2F9EE
:100920000346002B01D000F0B9F800BFC037BD4628
:1009300080BD000080B500AF144B154A1A60134B00
:100940004FF4E1325A60114B00229A600F4B0022A3
:10095000DA600E4B00221A610C4B0C225A610B4BD1
:1009600000229A61094B0022DA61084B00221A62C8
:10097000064B00225A62054806F07CFD0346002B18
:1009800001D000F08BF800BF80BD00BFD8780020F8
:100990000044004080B58AB000AF07F11403002284
:1009A0001A605A609A60DA601A612B4A2A4BDB6C33
:1009B00043F00403D364284BDB6C03F004033B6176
:1009C0003B69254A244BDB6C43F08003D364224B04
:1009D000DB6C03F08003FB60FB681F4A1E4BDB6C83
:1009E00043F00103D3641C4BDB6C03F00103BB60D9
:1009F000BB68194A184BDB6C43F00203D364164BF7
:100A0000DB6C03F002037B607B68002220214FF047
:100A1000904004F01DFB4FF400537B610F4BBB6112
:100A20000023FB6107F1140319460D4804F0BCF8DC
:100A300020237B610123BB610023FB6100233B6218
:100A400007F1140319464FF0904004F0ADF800BFD1
:100A50002837BD4680BD00BF0010024000002110B5
:100A60000008004880B582B000AF7860FFF7E6FD6F
:100A7000012007F062FAFBE780B582B000AF786032
:100A80007B681B68044A934201D103F08FFF00BFCB
:100A90000837BD4680BD00BF002C014080B400AFC8
:100AA00000BFBD465DF8047B7047000080B582B092
:100AB00000AF114A104B1B6E43F0010313660E4B3F
:100AC0001B6E03F001037B607B680B4A0A4B9B6D36
:100AD00043F080539365084B9B6D03F080533B605C
:100AE0003B6800220F216FF0010004F033F800BFD3
:100AF0000837BD4680BD00BF0010024080B58AB0F7
:100B000000AF786007F1140300221A605A609A60FF
:100B1000DA601A617B681B68174A934228D1174A2A
:100B2000164B9B6D43F400339365144B9B6D03F49C
:100B300000333B613B69114A104BDB6C43F001030E
:100B4000D3640E4BDB6C03F00103FB60FB680C23EA
:100B50007B610223BB610023FB6103233B6207230C
:100B60007B6207F1140319464FF0904004F01CF823
:100B700000BF2837BD4680BD004400400010024041
:100B800080B58CB000AF78600023FB620023BB62AD
:100B900000227968192003F0DDFF192003F0F6FF29
:100BA0001E4A1E4B1B6E43F4006313661B4B1B6EE9
:100BB00003F40063FB60FB6807F1100207F1140304
:100BC0001146184605F036FE05F01EFEF862FB6A77
:100BD000134AA2FB03239B0C013BBB62114B124A3D
:100BE0001A60104B40F2E732DA600E4ABB6A53607B
:100BF0000C4B00221A610B4B00229A60094806F048
:100C000005FA0346002B04D1064806F035FA0346E0
:100C100000E0012318463037BD4680BD0010024079
:100C200083DE1B4358790020002C014080B400AFC4
:100C300000BFBD465DF8047B704780B400AFFEE79F
:100C400080B400AFFEE780B400AFFEE780B400AF31
:100C5000FEE780B400AF00BFBD465DF8047B70477F
:100C600080B500AF024806F031FA00BF80BD00BF7A
:100C70005879002080B582B000AF00237B60194B0B
:100C8000194A1A60194B1B685A1C18490A60002B34
:100C900022D1144804F00CFD0346002B1CD111484E
:100CA00000F0FEF87B68002B16D10E4800F0B4F877
:100CB0000346002B03D06FF007037B600CE000219C
:100CC000084804F029FF0346002B03D06FF0070308
:100CD0007B6001E000237B607B6818460837BD46D7
:100CE00080BD00BF987900200054004074010020AE
:100CF00080B582B000AF00237B600F4B1B68002BD8
:100D000014D00D4B1B68013B0B4A13600A4B1B6848
:100D1000002B0BD1094800F0F9F8084804F057FA05
:100D20000346002B02D06FF007037B607B681846F8
:100D30000837BD4680BD00BF7401002098790020AF
:100D400080B58AB004AFBA601A460346FB810B46F1
:100D5000BB811346FB8000237B61BA89F9894FF47C
:100D600080530293FB880193BB68009301230C48D6
:100D700004F070FA0346002B0CD0094804F0A6FCDE
:100D80000346042B03D16FF065037B6102E06FF033
:100D900003037B617B6918461837BD4680BD00BFE1
:100DA0009879002080B58AB004AFBA601A4603462D
:100DB000FB810B46BB811346FB8000237B61BA8914
:100DC000F9894FF480530293FB880193BB68009329
:100DD00001230C4804F052FB0346002B0CD00948B9
:100DE00004F074FC0346042B03D16FF065037B61B0
:100DF00002E06FF003037B617B6918461837BD463C
:100E000080BD00BF9879002080B500AF03F0E0FD01
:100E10000346184680BD000080B584B000AF7860FE
:100E20000023FB737B681C4A1A607B681B4A5A606C
:100E30007B6800229A607B680122DA607B6800226E
:100E40001A617B6800225A617B6800229A617B6884
:100E50000022DA617B6800221A62786804F029F9BE
:100E60000346002B01D00123FB730021786804F0B6
:100E700053FE0346002B01D00123FB730021786849
:100E800004F095FE0346002B01D00123FB73FB7B8E
:100E900018461037BD4680BD00540040EC9C9010B1
:100EA00080B58AB000AF7860164A164BDB6C43F011
:100EB0000203D364134BDB6C03F002033B613B6919
:100EC0004FF440737B611223BB610123FB61032359
:100ED0003B6204237B6207F1140319460A4803F0BE
:100EE00063FE084A074B9B6D43F400139365054B63
:100EF0009B6D03F40013FB60FB6800BF2837BD4601
:100F000080BD00BF001002400004004880B582B0E0
:100F100000AF7860074A074B9B6D23F4001393657D
:100F20004FF44071044803F0B9FF00BF0837BD46D5
:100F300080BD00BF001002400004004880B584B0AE
:100F400000AF786039600023FB607B68002B03D121
:100F50004FF0FF33FB604DE03B681A687B681A6016
:100F60003B685A687B685A603B689A687B689A60FD
:100F70003B681A7B7B681A733B681A697B681A6145
:100F80003B685A697B685A613B689A697B689A61D9
:100F90007B681B4A1A627B681A4ADA617B687A6846
:100FA0005A627B681B68002B03D14FF0FF33FB6054
:100FB00020E07B681B6898470346002B03D04FF066
:100FC000FF33FB6016E07B689B68022B12D17B68C5
:100FD00093F82830002B0DD10523FB72FB7A1A46BB
:100FE0002121786800F063FD0346002B02D04FF00A
:100FF000FF33FB60FB6818461037BD4680BD00BF5D
:10100000411E0008771E000880B582B000AF7860EE
:101010007B681C330121184601F012FA0346002BAD
:1010200002D04FF0FF334BE07B681C3301211846A0
:1010300001F060F90346002B02D04FF0FF333FE090
:101040007B681C330021184601F020FA0346002B70
:1010500002D04FF0FF3333E07B681C330421184685
:1010600000F054FF0346002B02D04FF0FF3327E07F
:101070007B68154ADA627B68002283F830207B683F
:10108000002283F831207B681C330021184601F0D0
:1010900047F80346002B02D04FF0FF3310E07B6887
:1010A0001C330021184601F04BF90346002B02D0F7
:1010B0004FF0FF3304E07B68012283F828200023EF
:1010C00018460837BD4680BD0000C84280B582B0D2
:1010D00000AF7860786800F088F80346002B02D0F3
:1010E0004FF0FF3310E07B684FF00002DA627B685C
:1010F000002283F830207B68002283F831207B684F
:10110000002283F82820002318460837BD4680BDFA
:1011100080B582B000AF786039607B681C33396875
:10112000184601F07CF90346002B02D04FF0FF3344
:1011300000E0002318460837BD4680BD80B483B068
:1011400000AF786039603B6801221A703B6800226A
:101150005A703B6800229A703B680022DA703B6844
:1011600000225A603B6810229A603B680022DA60D5
:101170003B684FF000021A613B68064A5A613B68BF
:101180004FF000029A61002318460C37BD465DF807
:10119000047B70470000C84480B582B000AF78601F
:1011A0007B6893F82930012B01D1002319E07B687B
:1011B000D3ED0B7A7B6893F830107B6893F831306D
:1011C0001A46B0EE670A786800F08CFC0346002BE4
:1011D00002D04FF0FF3304E07B68012283F829201E
:1011E000002318460837BD4680BD80B582B000AFE9
:1011F00078607B6893F82930002B01D1002310E040
:101200007B681C330021184600F08AFF0346002B40
:1012100002D04FF0FF3304E07B68002283F82920DE
:10122000002318460837BD4680BD000080B584B055
:1012300000AF786039600023FB607B681C3307F1E6
:101240000B021146184601F0A1F80346002B02D00C
:101250004FF0FF33A0E07B681C3307F10A02114610
:10126000184600F0A3FE0346002B02D04FF0FF33D8
:1012700092E0BB7A1B2B00F2878001A252F823F088
:10128000F11200083D1300083D1300083D1300084B
:101290003D1300088913000889130008891300080A
:1012A000F11200083D1300083D1300083D1300082B
:1012B000891300088913000889130008891300089E
:1012C000F11200083D1300083D1300083D1300080B
:1012D0003D130008891300088913000889130008CA
:1012E000F11200083D1300083D1300083D130008EB
:1012F000FB7A032B1AD801A252F823F00D13000831
:10130000151300081D130008251300083B68244A24
:101310001A6012E03B68234A1A600EE03B68224ADA
:101320001A600AE03B68214A1A6006E03B68204ADE
:101330001A604FF0FF33FB6000BF2CE0FB7A032BF9
:101340001AD801A252F823F05913000861130008BB
:1013500069130008711300083B68164A1A6012E00E
:101360003B68154A1A600EE03B680D4A1A600AE0B5
:101370003B680C4A1A6006E03B680D4A1A604FF061
:10138000FF33FB6000BF06E03B68094A1A604FF07C
:10139000FF33FB6000BFFB6818461037BD4680BDB9
:1013A00023DB793F23DBF93F23DB794023DBF94063
:1013B000000080BF23DB793E23DBF93E80B584B09B
:1013C00000AF786039600023FB607B681C3307F155
:1013D0000B021146184600F0E9FE0346002B02D02E
:1013E0004FF0FF33B0E17B681C3307F10A0211466E
:1013F000184600F0DBFD0346002B02D04FF0FF3310
:10140000A2E1FB7A202B00F2978101A252F823F08F
:10141000951400089F1400083D15000845150008A4
:101420004D150008551500085D15000865150008E4
:10143000011600089D160008391700083917000822
:10144000391700083917000839170008391700083C
:1014500095140008391700083917000839170008D3
:10146000391700083917000839170008391700081C
:10147000391700083917000839170008391700080C
:1014800039170008391700083917000839170008FC
:10149000951400083B684FF000021A6053E1BB7AD4
:1014A0001B2B43D801A252F823F000BF25150008DA
:1014B0002515000825150008251500081D1500082C
:1014C0002D1500082D1500082D15000825150008FC
:1014D0002515000825150008251500082D150008FC
:1014E0002D1500082D1500082D15000825150008DC
:1014F0002515000825150008251500081D150008EC
:101500002D1500082D1500082D15000825150008BB
:101510002515000825150008251500083B688C4A8C
:101520001A600AE03B688B4A1A6006E03B688A4A08
:101530001A604FF0FF33FB6000BF04E13B68844A50
:101540001A6000E13B68854A1A60FCE03B68844A07
:101550001A60F8E03B68834A1A60F4E03B68824A0C
:101560001A60F0E0BB7A1B2B42D801A252F823F09C
:10157000E9150008E9150008E9150008E915000853
:10158000E1150008F1150008F1150008F115000833
:10159000E9150008E9150008E9150008E915000833
:1015A000F1150008F1150008F1150008F115000803
:1015B000E9150008E9150008E9150008E915000813
:1015C000E1150008F1150008F1150008F1150008F3
:1015D000E9150008E9150008E9150008E9150008F3
:1015E0003B68624A1A600AE03B685F4A1A6006E09C
:1015F0003B68594A1A604FF0FF33FB6000BFA2E01E
:10160000BB7A1B2B42D801A252F823F085160008A2
:101610008516000885160008851600087D16000846
:101620008D1600088D1600088D1600088516000816
:101630008516000885160008851600088D16000816
:101640008D1600088D1600088D16000885160008F6
:101650008516000885160008851600087D16000806
:101660008D1600088D1600088D16000885160008D6
:101670008516000885160008851600083B683C4A58
:101680001A600AE03B68384A1A6006E03B68324A52
:101690001A604FF0FF33FB6000BF54E0BB7A1B2B96
:1016A00042D801A252F823F02117000821170008A0
:1016B000211700082117000819170008291700082A
:1016C000291700082917000821170008211700080A
:1016D00021170008211700082917000829170008FA
:1016E00029170008291700082117000821170008EA
:1016F00021170008211700081917000829170008EA
:1017000029170008291700082117000821170008C9
:1017100021170008211700083B68164A1A600AE0E2
:101720003B68114A1A6006E03B680B4A1A604FF0AA
:10173000FF33FB6000BF06E03B68074A1A604FF0CA
:10174000FF33FB6000BFFB6818461037BD4680BD05
:1017500000004841CDCCCC3F000080BF0000C84114
:10176000000048420000C842000048430000C8434F
:10177000000048440000C84480B582B000AF7860E3
:1017800087ED000A0022002197ED000A786800F03A
:1017900005F8034618460837BD4680BD80B584B0BD
:1017A00000AFF86087ED020A0B46FB711346BB7170
:1017B000FB6893F82930012B09D1BA79FB791946D6
:1017C00097ED020AF86800F08DF9034608E0BA794F
:1017D000FB79194697ED020AF86800F09FFA034674
:1017E00018461037BD4680BD80B584B000AF786024
:1017F00039600023FB607B681C3307F10B02114644
:10180000184600F0C3FD0346002B02D04FF0FF3313
:1018100027E0FB7A032B1BD801A252F823F000BF6C
:101820003118000839180008411800084918000844
:101830003B6802221A6013E03B6804221A600FE042
:101840003B6808221A600BE03B6810221A6007E030
:101850003B684FF0FF321A604FF0FF33FB6000BF70
:10186000FB6818461037BD4680BD00BF80B584B008
:1018700000AF786039603B68022B0BDD3B68042BBE
:1018800006DD3B68082B01DC022304E0032302E0B1
:10189000012300E00023FB737B681C33FA7B1146B5
:1018A000184600F04DFD0346002B02D04FF0FF33E9
:1018B00000E0002318461037BD4680BD80B586B0D5
:1018C00000AF7860396000237B617B681C3307F1CF
:1018D0000B021146184600F069FB0346002B02D0AC
:1018E0004FF0FF3389E07B681C3307F10C0211468F
:1018F000184600F083FD0346002B02D04FF0FF3363
:101900007BE0FB7A1B2B73D801A252F823F000BFB7
:1019100081190008B9190008B9190008B919000897
:10192000B9190008F1190008F1190008F1190008A7
:1019300081190008B9190008B9190008B919000877
:10194000F1190008F1190008F1190008F11900084F
:1019500081190008B9190008B9190008B919000857
:10196000B9190008F1190008F1190008F119000867
:1019700081190008B9190008B9190008B919000837
:10198000B7F90C30002B00DA0F331B111AB23B6889
:101990001A80B7F90E30002B00DA0F331B111AB280
:1019A0003B685A80B7F91030002B00DA0F331B1157
:1019B0001AB23B689A801FE0B7F90C30002B00DAAE
:1019C00003339B101AB23B681A80B7F90E30002B14
:1019D00000DA03339B101AB23B685A80B7F9103013
:1019E000002B00DA03339B101AB23B689A8003E0A5
:1019F0004FF0FF337B6100BF7B6918461837BD4647
:101A000080BD00BF80B586B000AF786039604FF010
:101A10000003FB6007F1100319467868FFF74EFFDB
:101A20000346002B02D04FF0FF333CE007F10C03DC
:101A300019467868FFF7FAFB0346002B02D04FF0F7
:101A4000FF3330E0B7F9103007EE903AB8EEE77A9E
:101A5000D7ED037A67EE277AFDEEE77A17EE902A44
:101A60003B681A60B7F9123007EE903AB8EEE77AA1
:101A7000D7ED037A67EE277AFDEEE77A17EE902A24
:101A80003B685A60B7F9143007EE903AB8EEE77A3F
:101A9000D7ED037A67EE277AFDEEE77A17EE902A04
:101AA0003B689A60002318461837BD4680BD80B554
:101AB00082B000AF78600B46FB701346BB707B684A
:101AC00003F11C00BA1CF978012300F007FA034661
:101AD000002B02D04FF0FF3300E0002318460837F8
:101AE000BD4680BD80B586B000AFF86087ED020AC4
:101AF0000B46FB711346BB71FB79013B032B0BD8E3
:101B000001A252F823F000BF451B0008711B00081A
:101B10009D1B0008C91B0008BB79012B02D00423C0
:101B2000FB7502E01423FB7500BFD7ED027AB2EE1D
:101B3000097AF4EEC77AF1EE10FA00D45AE06F4B4E
:101B4000BB6057E0BB79012B02D00323FB7502E099
:101B50001323FB7500BFD7ED027A9FED697AF4EE8F
:101B6000C77AF1EE10FA00DC44E0664BBB6041E05E
:101B7000BB79012B02D00223FB7502E01223FB7517
:101B800000BFD7ED027A9FED5E7AF4EEC77AF1EEF0
:101B900010FA00DC2EE05B4BBB602BE0BB79012B25
:101BA00002D00123FB7502E01123FB7500BFD7EDC6
:101BB000027A9FED537AF4EEC77AF1EE10FA00DC68
:101BC00018E0504BBB6015E0BB79012B02D000231D
:101BD000FB7502E01023FB7500BFD7ED027A9FED85
:101BE000487AF4EEC77AF1EE10FA00DC01E0454BDA
:101BF000BB6000BFD7ED027A9FED437AF4EEC77A5F
:101C0000F1EE10FA01D801234DE0D7ED027AB2EEE1
:101C1000097AF4EEC77AF1EE10FA01D8022342E015
:101C2000D7ED027AB3EE097AF4EEC77AF1EE10FA44
:101C300001D8032337E0D7ED027A9FED347AF4EE32
:101C4000C77AF1EE10FA01D804232CE0D7ED027A1E
:101C50009FED2F7AF4EEC77AF1EE10FA01D8052342
:101C600021E0D7ED027A9FED267AF4EEC77AF1EE05
:101C700010FA01D8062316E0D7ED027A9FED257AF7
:101C8000F4EEC77AF1EE10FA01D807230BE0D7ED96
:101C9000027A9FED217AF4EEC77AF1EE10FA01D8BC
:101CA000082300E00923BB75FB681C33BA7D11468D
:101CB000184600F035FA0346002B02D04FF0FF33F0
:101CC00018E0FB681C33FA7D1146184600F01EF937
:101CD0000346002B02D04FF0FF330BE0FB68BA68DD
:101CE000DA62FB68FA7983F83020FB68BA7983F806
:101CF0003120002318461837BD4680BD00004841FA
:101D00000000484300004843CDCCCC3F000048428F
:101D10000000C8420000C8430000484480B485B0B9
:101D200000AFF86087ED020A0B46FB711346BB71EA
:101D3000FB68FA7983F83020FB68BA7983F83120A0
:101D4000D7ED027A9FED2F7AF4EEC77AF1EE10FA12
:101D500001D82D4B4DE0D7ED027AB2EE097AF4EEC0
:101D6000C77AF1EE10FA01D8284B42E0D7ED027A9B
:101D7000B3EE097AF4EEC77AF1EE10FA01D8244BEB
:101D800037E0D7ED027A9FED237AF4EEC77AF1EED1
:101D900010FA01D8204B2CE0D7ED027A9FED1F7A84
:101DA000F4EEC77AF1EE10FA01D81D4B21E0D7ED21
:101DB000027A9FED1C7AF4EEC77AF1EE10FA01D8A0
:101DC000194B16E0D7ED027A9FED187AF4EEC77A38
:101DD000F1EE10FA01D8164B0BE0D7ED027A9FED29
:101DE000157AF4EEC77AF1EE10FA01D8124B00E042
:101DF000124BFA68D362002318461437BD465DF8CB
:101E0000047B7047CDCCCC3FCDCCCC3F00004841CB
:101E10000000C84100004842000048420000C8429B
:101E20000000C84200004843000048430000C84387
:101E30000000C84300004844000048440000C84473
:101E400090B587B000AFF8607A601A460B46FB7217
:101E500013463B81FB687B617B695C697B691B7B0B
:101E600098B2FB7A99B23B897A68A0470346184634
:101E70001C37BD4690BD90B587B000AFF8607A6062
:101E80001A460B46FB7213463B81FB687B617B69FC
:101E90001C697B691B7B98B2FB7A99B23B897A6893
:101EA000A047034618461C37BD4690BD90B587B085
:101EB00000AFF8607A601A460B46FB7213463B810E
:101EC000FB685C68FB6898683B89F97A7A68A04788
:101ED00078617B6918461C37BD4690BD90B587B0C8
:101EE00000AFF8607A601A460B46FB7213463B81DE
:101EF000FB681C68FB6898683B89F97A7A68A04798
:101F000078617B6918461C37BD4690BD80B586B0A8
:101F100000AF78600B46FB7007F11002012320210F
:101F20007868FFF7C3FF78617B69002B19D1FB78D4
:101F30009B08DBB203F00303DAB23B7C62F383035A
:101F40003B74FB7803F00303DAB23B7C62F30103DA
:101F50003B7407F11002012320217868FFF7BEFFD0
:101F600078617B69002B07D107F10C020123252141
:101F70007868FFF79BFF78617B69002B11D1FB78B4
:101F80001B09DBB203F00103DAB23B7B62F382038D
:101F90003B7307F10C02012325217868FFF79EFFB0
:101FA00078617B6918461837BD4680BD80B586B01C
:101FB00000AF7860396007F11002012320217868B2
:101FC000FFF774FF78617B69002B40F0A38007F175
:101FD0000C02012325217868FFF768FF78613B7BBD
:101FE000C3F38003DBB21A013B7CC3F38103DBB292
:101FF0009B0013443A7CC2F30102D2B213441B2B60
:1020000000F2848001A252F823F000BF9D20000856
:10201000952000088D200008852000087D200008FC
:102020000D2100080D2100080D210008BD20000829
:10203000B5200008AD200008A52000080D210008EB
:102040000D2100080D2100080D210008E5200008E1
:10205000DD200008D5200008CD200008C52000089C
:102060000D2100080D2100080D21000805210008A0
:10207000FD200008F5200008ED2000083B68042240
:102080001A7047E03B6803221A7043E03B68022263
:102090001A703FE03B6801221A703BE03B68002267
:1020A0001A7037E03B680B221A7033E03B680A2253
:1020B0001A702FE03B6809221A702BE03B68082257
:1020C0001A7027E03B6814221A7023E03B68132241
:1020D0001A701FE03B6812221A701BE03B68112245
:1020E0001A7017E03B6810221A7013E03B681B223D
:1020F0001A700FE03B681A221A700BE03B68192235
:102100001A7007E03B6818221A7003E03B6804224B
:102110001A7000BF7B6918461837BD4680BD00BFE6
:1021200080B586B000AF78600B46FB7007F11002F7
:10213000012320217868FFF7B9FE78617B69002BC5
:102140000FD1FB7803F00F03DAB23B7C62F3071385
:102150003B7407F11002012320217868FFF7BEFECF
:1021600078617B69002B07D107F10C020123222142
:102170007868FFF79BFE78617B69002B11D1FB78B3
:102180001B09DBB203F00303DAB23B7B62F301030A
:102190003B7307F10C02012322217868FFF79EFEB2
:1021A00078617B6918461837BD4680BD80B586B01A
:1021B00000AF7860396007F11002012320217868B0
:1021C000FFF774FE78617B69002B40F08D8007F18A
:1021D0000C02012322217868FFF768FE78613B7BBF
:1021E000C3F30103DBB21B013A7CC2F30312D2B288
:1021F0001344202B74D801A252F823F08122000846
:10220000892200089122000899220008A1220008D2
:10221000A9220008B1220008B9220008C122000842
:10222000C9220008E1220008E1220008E12200089A
:10223000E1220008E1220008E1220008D122000882
:10224000E1220008E1220008E1220008E122000862
:10225000E1220008E1220008E1220008E122000852
:10226000E1220008E1220008E1220008E122000842
:10227000E1220008E1220008E1220008D92200083A
:102280003B6800221A702FE03B6801221A702BE095
:102290003B6802221A7027E03B6803221A7023E091
:1022A0003B6804221A701FE03B6805221A701BE08D
:1022B0003B6806221A7017E03B6807221A7013E089
:1022C0003B6808221A700FE03B6809221A700BE085
:1022D0003B6810221A7007E03B6820221A7003E066
:1022E0003B6800221A7000BF7B6918461837BD464C
:1022F00080BD00BF80B584B000AF78600B46FB7036
:1023000007F10802012321217868FFF7CFFDF8606B
:10231000FB68002B0FD1FB7803F00103DAB23B7AA4
:1023200062F3C3033B7207F108020123212178689D
:10233000FFF7D4FDF860FB6818461037BD4680BD36
:1023400080B584B000AF78600B46FB7007F10802DF
:10235000012325217868FFF7A9FDF860FB68002BB1
:102360000FD1FB7803F00303DAB23B7A62F3051373
:102370003B7207F10802012325217868FFF7AEFDC3
:10238000F860FB6818461037BD4680BD80B584B044
:1023900000AF7860396007F10802012325217868D1
:1023A000FFF784FDF8603B7AC3F30113DBB2032B24
:1023B0001AD801A252F823F0C9230008D12300083B
:1023C000D9230008E12300083B6800221A700FE0BF
:1023D0003B6801221A700BE03B6802221A7007E08A
:1023E0003B6803221A7003E03B6800221A7000BFAA
:1023F000FB6818461037BD4680BD00BF80B584B06D
:1024000000AF7860396006233A6828217868FFF7C2
:102410004DFDF860FB6818461037BD4680BD80B59D
:1024200084B000AF7860396001233A680F21786882
:10243000FFF73CFDF860FB6818461037BD4680BDCD
:1024400080B584B000AF78600B46FB7007F10802DE
:10245000012321217868FFF729FDF860FB68002B34
:102460000FD1FB7803F00103DAB23B7A62F3820307
:102470003B7207F10802012321217868FFF72EFD46
:10248000F860FB6818461037BD4680BD80B584B043
:1024900000AF78600B46FB7007F1080201232E2184
:1024A0007868FFF703FDF860FB68002B0FD1FB781D
:1024B00003F00703DAB23B7A62F347133B7207F18A
:1024C000080201232E217868FFF708FDF860FB68F9
:1024D00018461037BD4680BD80B584B000AF786027
:1024E00039600023FB607B68002B03D14FF0FF3382
:1024F000FB605DE03B681A687B681A603B685A685D
:102500007B685A603B689A687B689A603B681A7B74
:102510007B681A733B681A697B681A613B685A6961
:102520007B685A613B689A697B689A617B68234A39
:102530001A627B68224ADA617B687A685A627B6831
:102540001B68002B03D14FF0FF33FB6030E07B684A
:102550001B6898470346002B03D04FF0FF33FB6006
:1025600026E07B689B68002B22D07B6893F828309C
:10257000002B1DD17B689B68012B0DD13423FB728E
:10258000FB7A1A466221786800F015FA0346002BA0
:102590000ED04FF0FF330CE07B681C33012118464E
:1025A00000F0A8FB0346002B02D04FF0FF3300E001
:1025B000FB6818461037BD4680BD00BFED290008F6
:1025C0004F2A000880B582B000AF78607B681C336A
:1025D0000121184600F020FB0346002B02D04FF0EB
:1025E000FF3328E07B681C330221184600F090FA84
:1025F0000346002B02D04FF0FF331CE07B681C33F6
:102600000321184600F0AAFA0346002B02D04FF02F
:10261000FF3310E07B681C330021184600F044FBB8
:102620000346002B02D04FF0FF3304E07B68012209
:1026300083F82820002318460837BD4680BD80B5A2
:1026400082B000AF7860786800F074F80346002B21
:1026500002D04FF0FF3304E07B68002283F828208B
:10266000002318460837BD4680BD80B582B000AF54
:10267000786039607B681C333968184600F003FBCA
:102680000346002B02D04FF0FF3300E00023184632
:102690000837BD4680BD000080B483B000AF7860CD
:1026A00039603B6800221A703B6800225A703B6810
:1026B00001229A703B680022DA703B6800225A605F
:1026C0003B6800229A603B683222DA603B684FF038
:1026D00000021A613B684FF000025A613B68044AED
:1026E0009A61002318460C37BD465DF8047B70479D
:1026F0000000C84280B582B000AF78607B6893F874
:102700002930012B01D1002310E07B681C3300210C
:10271000184600F0FDF90346002B02D04FF0FF33BE
:1027200004E07B68012283F829200023184608373B
:10273000BD4680BD80B582B000AF78607B6893F8FD
:102740002930002B01D1002310E07B681C330221CB
:10275000184600F0DDF90346002B02D04FF0FF339E
:1027600004E07B68002283F82920002318460837FC
:10277000BD4680BD80B483B000AF786039603B68EF
:102780004FF07F521A60002318460C37BD465DF8A3
:10279000047B704780B584B000AF78603960002357
:1027A000FB607B681C3307F10B021146184600F0F2
:1027B000FBF90346002B02D04FF0FF3323E0FB7AF6
:1027C000032B1BD801A252F823F000BFDD2700081D
:1027D000E5270008ED270008F52700083B680C4AAC
:1027E0001A600FE03B680B4A1A600BE03B680A4A2C
:1027F0001A6007E03B68094A1A6003E04FF0FF33B4
:10280000FB6000BFFB6818461037BD4680BD00BFA7
:10281000000020410000A041000048420000C842E2
:1028200080B584B000AF786087ED000AD7ED007AFC
:10283000B2EE047AF4EEC77AF1EE10FA01D8002372
:1028400016E0D7ED007AB3EE047AF4EEC77AF1EE33
:1028500010FA01D801230BE0D7ED007A9FED0E7A34
:10286000F4EEC77AF1EE10FA01D8022300E0032358
:10287000FB737B681C33FA7B1146184600F06EF937
:102880000346002B02D04FF0FF3300E00023184630
:102890001037BD4680BD00BF0000484280B483B001
:1028A00000AF786039603B6832221A600023184616
:1028B0000C37BD465DF8047B704780B483B000AF31
:1028C00078603960002318460C37BD465DF8047BFC
:1028D000704780B584B000AF786039607B681C3386
:1028E00007F108021146184600F0BCF90346002B18
:1028F00002D04FF0FF330CE0B7F908203B681A8094
:10290000B7F90A203B685A80B7F90C203B689A80D7
:10291000002318461037BD4680BD80B586B000AF95
:10292000786039607B681C3307F110021146184645
:1029300000F098F90346002B02D04FF0FF3336E049
:1029400007F10C0319467868FFF714FFB7F9103048
:1029500007EE903AB8EEE77AD7ED037A67EE277A7A
:10296000FDEEE77A17EE902A3B681A60B7F912304D
:1029700007EE903AB8EEE77AD7ED037A67EE277A5A
:10298000FDEEE77A17EE902A3B685A60B7F91430EB
:1029900007EE903AB8EEE77AD7ED037A67EE277A3A
:1029A000FDEEE77A17EE902A3B689A6000231846FE
:1029B0001837BD4680BD80B582B000AF78600B4649
:1029C000FB701346BB707B6803F11C00BA1CF978DE
:1029D000012300F085F80346002B02D04FF0FF33AF
:1029E00000E0002318460837BD4680BD90B587B08B
:1029F00000AFF8607A601A460B46FB7213463B81C3
:102A0000FB687B617B699B68002B0ED17B695C69ED
:102A10007B691B7B98B2FB7A63F07F03DBB299B2D0
:102A20003B897A68A04703460DE07B695C697B6956
:102A30001B7B98B2FB7A43F04003DBB299B23B892F
:102A40007A68A047034618461C37BD4690BD90B52E
:102A500087B000AFF8607A601A460B46FB721346E7
:102A60003B81FB687B617B699B68002B0ED17B6996
:102A70001C697B691B7B98B2FB7A63F07F03DBB236
:102A800099B23B897A68A04703460DE07B691C69CF
:102A90007B691B7B98B2FB7A43F04003DBB299B2AF
:102AA0003B897A68A047034618461C37BD4690BD4F
:102AB00090B587B000AFF8607A601A460B46FB729B
:102AC00013463B81FB685C68FB6898683B89F97A30
:102AD0007A68A04778617B6918461C37BD4690BD6F
:102AE00090B587B000AFF8607A601A460B46FB726B
:102AF00013463B81FB681C68FB6898683B89F97A40
:102B00007A68A04778617B6918461C37BD4690BD3E
:102B100080B584B000AF78600B46FB7007F1080207
:102B2000012360217868FFF7C3FFF860FB68002B82
:102B30000FD1FB7803F00303DAB23B7A62F30103AF
:102B40003B7207F10802012360217868FFF7C8FF94
:102B5000F860FB6818461037BD4680BD80B584B06C
:102B600000AF78600B46FB7007F10802012360217B
:102B70007868FFF79DFFF860FB68002B0FD1FB78AA
:102B800003F00303DAB23B7A62F383033B7207F18B
:102B90000802012360217868FFF7A2FFF860FB6854
:102BA00018461037BD4680BD80B584B000AF786050
:102BB000396007F10802012360217868FFF778FF88
:102BC000F8603B7AC3F38103DBB2032B1AD801A26E
:102BD00052F823F0E52B0008ED2B0008F52B000838
:102BE000FD2B00083B6800221A700FE03B680122B1
:102BF0001A700BE03B6802221A7007E03B68032260
:102C00001A7003E03B6800221A7000BFFB68184688
:102C10001037BD4680BD00BF80B584B000AF78607E
:102C20000B46FB7007F10802012362217868FFF769
:102C30003FFFF860FB68002B0FD1FB7803F0010326
:102C4000DAB23B7A62F304133B7207F10802012304
:102C500062217868FFF744FFF860FB681846103778
:102C6000BD4680BD80B584B000AF78603960062372
:102C70003A6868217868FFF71BFFF860FB68184620
:102C80001037BD4680BD80B584B000AF7860396034
:102C900001233A684F217868FFF70AFFF860FB6864
:102CA00018461037BD4680BD80B584B000AF78604F
:102CB0000B46FB7007F10802012362217868FFF7D9
:102CC000F7FEF860FB68002B0FD1FB7803F00103DF
:102CD000DAB23B7A62F341033B7207F10802012347
:102CE00062217868FFF7FCFEF860FB681846103731
:102CF000BD4680BD80B584B000AF78600B46FB70E8
:102D000007F10802012362217868FFF7D1FEF8601D
:102D1000FB68002B0FD1FB7803F00103DAB23B7A9A
:102D200062F345133B7207F10802012362217868C0
:102D3000FFF7D6FEF860FB6818461037BD4680BD29
:102D400080B584B000AF786039600023FB607B6899
:102D5000002B03D14FF0FF33FB604DE03B681A6856
:102D60007B681A603B685A687B685A603B689A685F
:102D70007B689A603B681A7B7B681A733B681A69A8
:102D80007B681A613B685A697B685A613B689A693B
:102D90007B689A617B681B4A1A627B681A4ADA610F
:102DA0007B687A685A627B681B68002B03D14FF0FE
:102DB000FF33FB6020E07B681B6898470346002BCD
:102DC00003D04FF0FF33FB6016E07B689B68022B5B
:102DD00012D17B6893F82830002B0DD10C23FB72A5
:102DE000FB7A1A461221786800F02DFD0346002B6D
:102DF00002D04FF0FF33FB60FB6818461037BD462A
:102E000080BD00BFB53C0008EB3C000880B582B037
:102E100000AF78607B681C330121184601F0E5F9AA
:102E20000346002B02D04FF0FF3354E07B681C3385
:102E30000121184601F080F90346002B02D04FF023
:102E4000FF3348E07B681C330021184601F0F3F99A
:102E50000346002B02D04FF0FF333CE07B68042296
:102E600083F82B207B681C330021184600F0E6FF16
:102E70000346002B02D04FF0FF332CE07B681C335D
:102E80000021184600F07CFF0346002B02D04FF0D3
:102E9000FF3320E07B68042283F82C207B681C33FE
:102EA0000021184601F0C0F80346002B02D04FF075
:102EB000FF3310E07B681C330621184601F04CF804
:102EC0000346002B02D04FF0FF3304E07B68012261
:102ED00083F82820002318460837BD4680BD80B5FA
:102EE00082B000AF7860786800F088F80346002B65
:102EF00002D04FF0FF3315E0786800F09AFA0346ED
:102F0000002B02D04FF0FF330CE07B68002283F8E7
:102F10002B207B68002283F82C207B68002283F81A
:102F20002820002318460837BD4680BD80B582B0F2
:102F300000AF786039607B681C333968184601F04F
:102F400043F90346002B02D04FF0FF3300E000238B
:102F500018460837BD4680BD80B483B000AF7860A6
:102F600039603B6801221A703B6801225A703B6845
:102F700000229A703B680022DA703B684FF4FA62D4
:102F80005A603B6810229A603B680022DA603B6816
:102F9000074A1A613B68064A5A613B684FF00002D3
:102FA0009A61002318460C37BD465DF8047B7047D4
:102FB0000020D04580B582B000AF78607B6893F880
:102FC0002930012B01D1002314E07B6803F11C029E
:102FD0007B6893F82B301946104600F02FFF03460C
:102FE000002B02D04FF0FF3304E07B68012283F80E
:102FF0002920002318460837BD4680BD80B582B021
:1030000000AF78607B6893F82930002B01D1002352
:103010001FE07B6803F11C027B682B3319461046C6
:1030200000F032FF0346002B02D04FF0FF3310E0D8
:103030007B681C330021184600F000FF0346002B7C
:1030400002D04FF0FF3304E07B68002283F8292090
:10305000002318460837BD4680BD000080B584B007
:1030600000AF786039600023FB607B681C3307F198
:103070000B021146184600F0A9FE0346002B02D0B1
:103080004FF0FF3323E0FB7A032B1BD801A252F849
:1030900023F000BFA5300008BD300008AD300008A7
:1030A000B53000083B680C4A1A600FE03B680B4AD9
:1030B0001A600BE03B680A4A1A6007E03B68094A5D
:1030C0001A6003E04FF0FF33FB6000BFFB68184657
:1030D0001037BD4680BD00BF23DB793D23DBF93DC2
:1030E00023DB793E23DBF93E80B584B000AF786006
:1030F00039600023FB607B681C3307F10B0211462B
:10310000184600F0C1FE0346002B02D04FF0FF33FB
:1031100054E0FB7A0B2B4CD801A252F823F000BFED
:1031200051310008633100086B3100087331000829
:103130007B310008833100088B310008933100088F
:103140009B310008A3310008AB3100085B31000857
:103150003B684FF000021A602FE03B68194A1A6082
:103160002BE03B68184A1A6027E03B68174A1A6050
:1031700023E03B68164A1A601FE03B68154A1A6054
:103180001BE03B68144A1A6017E03B68134A1A6058
:1031900013E03B68124A1A600FE03B68114A1A605C
:1031A0000BE03B68104A1A6007E03B680F4A1A6060
:1031B00003E04FF0FF33FB6000BFFB681846103799
:1031C000BD4680BD0000D040000048410000D04115
:1031D000000050420000D042000050430080D04325
:1031E000004050440060D044005050450058D04545
:1031F00080B582B000AF786087ED000A7B6893F8F5
:103200002930012B06D197ED000A786800F036FBD3
:10321000034605E097ED000A786800F0BBFB034623
:1032200018460837BD4680BD80B584B000AF7860D1
:1032300039600023FB607B681C3307F10B021146E9
:10324000184600F0C3FD0346002B02D04FF0FF33B9
:1032500023E0FB7A032B1BD801A252F823F000BF16
:103260007132000889320008793200088132000882
:103270003B6802221A600FE03B6804221A600BE0F0
:103280003B6808221A6007E03B6810221A6003E0DE
:103290004FF0FF33FB6000BFFB6818461037BD4698
:1032A00080BD00BF80B584B000AF786039603B68F6
:1032B000022B0BDD3B68042B06DD3B68082B01DC91
:1032C000032304E0012302E0022300E00023FB7358
:1032D0007B681C33FA7B1146184600F051FD03460B
:1032E000002B02D04FF0FF3300E0002318461037C8
:1032F000BD4680BD80B584B000AF786039607B6822
:103300001C3307F108021146184600F04CFF034633
:10331000002B02D04FF0FF330CE0B7F908203B68D8
:103320001A80B7F90A203B685A80B7F90C203B682D
:103330009A80002318461037BD4680BD80B586B000
:1033400000AF786039604FF00003FB607B681C338E
:1033500007F110021146184600F025FF0346002B26
:1033600002D04FF0FF333CE007F10C0319467868B8
:10337000FFF774FE0346002B02D04FF0FF3330E01E
:10338000B7F9103007EE903AB8EEE77AD7ED037A46
:1033900067EE277AFDEEE77A17EE902A3B681A600F
:1033A000B7F9123007EE903AB8EEE77AD7ED037A24
:1033B00067EE277AFDEEE77A17EE902A3B685A60AF
:1033C000B7F9143007EE903AB8EEE77AD7ED037A02
:1033D00067EE277AFDEEE77A17EE902A3B689A604F
:1033E000002318461837BD4680BD80B582B000AFB7
:1033F00078607B6893F82A30012B01D1002314E018
:103400007B6803F11C027B6893F82C301946104648
:1034100000F00AFE0346002B02D04FF0FF3304E019
:103420007B68012283F82A20002318460837BD460E
:1034300080BD80B582B000AF78607B6893F82A3099
:10344000002B01D100231FE07B6803F11C027B6885
:103450002C331946104600F00DFE0346002B02D017
:103460004FF0FF3310E07B681C330021184600F05A
:10347000DBFD0346002B02D04FF0FF3304E07B68F6
:10348000002283F82A20002318460837BD4680BD55
:1034900080B584B000AF786039600023FB607B6842
:1034A0001C3307F10B021146184600F07BFD034662
:1034B000002B02D04FF0FF332DE0FB7A062B25D8EE
:1034C00001A252F823F000BFED340008E5340008F3
:1034D000F53400080D350008FD3400080D350008EE
:1034E000053500083B680E4A1A6013E03B680D4A38
:1034F0001A600FE03B680C4A1A600BE03B680B4A0D
:103500001A6007E03B680A4A1A6003E04FF0FF3395
:10351000FB6000BFFB6818461037BD4680BD00BF8A
:1035200000008C4000000C4100008C4100000C4267
:1035300000008C4280B584B000AF78603960002311
:10354000FB607B681C3307F10B021146184600F044
:1035500091FD0346002B02D04FF0FF334EE0FB7A83
:103560000A2B46D801A252F823F000BF9935000873
:10357000A3350008AB350008B3350008BB3500089B
:10358000C3350008CB350008D3350008DB3500080B
:10359000E3350008EB3500083B684FF000021A6085
:1035A0002BE03B68174A1A6027E03B68164A1A600E
:1035B00023E03B68154A1A601FE03B68144A1A6012
:1035C0001BE03B68134A1A6017E03B68124A1A6016
:1035D00013E03B68114A1A600FE03B68104A1A601A
:1035E0000BE03B680F4A1A6007E03B680E4A1A601E
:1035F00003E04FF0FF33FB6000BFFB681846103755
:10360000BD4680BD000048410000D041000050424E
:103610000000D042000050430080D043004050449E
:103620000060D044005050450058D04580B582B06D
:1036300000AF786087ED000A7B6893F82A30012B91
:1036400006D197ED000A786800F026FA034605E0F7
:1036500097ED000A786800F0ABFA03461846083781
:10366000BD4680BD80B584B000AF7860396000236E
:10367000FB607B681C3307F10B021146184600F013
:1036800091FC0346002B02D04FF0FF3330E0FB7A71
:10369000062B28D801A252F823F000BFC13600083B
:1036A000B9360008C9360008E7360008D3360008E6
:1036B000E7360008DD3600083B687D221A6016E018
:1036C0003B68FA221A6012E03B684FF4FA721A6003
:1036D0000DE03B684FF47A721A6008E03B684FF4E3
:1036E000FA621A6003E04FF0FF33FB6000BFFB6833
:1036F00018461037BD4680BD80B584B000AF7860F5
:1037000039603B687D2B12DD3B68FA2B0DDD3B6891
:10371000B3F5FA7F07DD3B68B3F57A7F01DC04235C
:1037200006E0062304E0022302E0002300E0012378
:10373000FB737B681C33FA7B1146184600F00CFCC7
:103740000346002B02D04FF0FF3300E00023184661
:103750001037BD4680BD80B584B000AF7860396059
:103760007B681C3307F108021146184600F00AFD79
:103770000346002B02D04FF0FF330CE0B7F90820CE
:103780003B681A80B7F90A203B685A80B7F90C20C9
:103790003B689A80002318461037BD4680BD80B52F
:1037A00086B000AF786039607B681C3307F1100287
:1037B0001146184600F0E6FC0346002B02D04FF0FD
:1037C000FF333CE007F10C0319467868FFF760FE11
:1037D0000346002B02D04FF0FF3330E0B7F9103032
:1037E00007EE903AB8EEE77AD7ED037A67EE277ADC
:1037F000FDEEE77A17EE902A3B681A60B7F91230AF
:1038000007EE903AB8EEE77AD7ED037A67EE277ABB
:10381000FDEEE77A17EE902A3B685A60B7F914304C
:1038200007EE903AB8EEE77AD7ED037A67EE277A9B
:10383000FDEEE77A17EE902A3B689A60002318465F
:103840001837BD4680BD80B582B000AF78600B46AA
:10385000FB701346BB707B6803F11C00BA1CF9783F
:10386000012300F075FA0346002B02D04FF0FF331E
:1038700000E0002318460837BD4680BD80B584B0FF
:1038800000AF786087ED000AD7ED007AB2EE097AD2
:10389000F4EEC77AF1EE10FA01D8012358E0D7ED23
:1038A000007AB3EE0A7AF4EEC77AF1EE10FA01D894
:1038B00002234DE0D7ED007A9FED2F7AF4EEC77A20
:1038C000F1EE10FA01D8032342E0D7ED007A9FED24
:1038D0002B7AF4EEC77AF1EE10FA01D8042337E020
:1038E000D7ED007A9FED267AF4EEC77AF1EE10FA62
:1038F00001D805232CE0D7ED007A9FED227AF4EE73
:10390000C77AF1EE10FA01D8062321E0D7ED007A4C
:103910009FED1D7AF4EEC77AF1EE10FA01D8072375
:1039200016E0D7ED007A9FED197AF4EEC77AF1EE42
:1039300010FA01D808230BE0D7ED007A9FED147A36
:10394000F4EEC77AF1EE10FA01D8092300E00A2359
:10395000FB737B681C33FA7B1146184600F06EFA45
:103960000346002B02D04FF0FF3300E0002318463F
:103970001037BD4680BD00BF000050420000D0425D
:10398000000050430080D043004050440060D044C9
:103990000050504580B483B000AF786087ED000AD6
:1039A000D7ED007AB2EE097AF4EEC77AF1EE10FAAA
:1039B00001D8012358E0D7ED007AB3EE0A7AF4EE8D
:1039C000C77AF1EE10FA01D802234DE0D7ED007A64
:1039D0009FED2A7AF4EEC77AF1EE10FA01D80323AC
:1039E00042E0D7ED007A9FED267AF4EEC77AF1EE49
:1039F00010FA01D8042337E0D7ED007A9FED217A41
:103A0000F4EEC77AF1EE10FA01D805232CE0D7EDD9
:103A1000007A9FED1D7AF4EEC77AF1EE10FA01D824
:103A2000062321E0D7ED007A9FED187AF4EEC77AED
:103A3000F1EE10FA01D8072316E0D7ED007A9FEDDA
:103A4000147AF4EEC77AF1EE10FA01D808230BE0ED
:103A5000D7ED007A9FED0F7AF4EEC77AF1EE10FA07
:103A600001D8092300E00A237A6882F82B3000236A
:103A700018460C37BD465DF8047B70470000504285
:103A80000000D042000050430080D043004050442A
:103A90000060D0440050504580B584B000AF7860DD
:103AA00087ED000AD7ED007AB2EE097AF4EEC77A14
:103AB000F1EE10FA01D8012358E0D7ED007AB3EE09
:103AC0000A7AF4EEC77AF1EE10FA01D802234DE03B
:103AD000D7ED007A9FED2F7AF4EEC77AF1EE10FA67
:103AE00001D8032342E0D7ED007A9FED2B7AF4EE64
:103AF000C77AF1EE10FA01D8042337E0D7ED007A47
:103B00009FED267AF4EEC77AF1EE10FA01D805237C
:103B10002CE0D7ED007A9FED227AF4EEC77AF1EE31
:103B200010FA01D8062321E0D7ED007A9FED1D7A27
:103B3000F4EEC77AF1EE10FA01D8072316E0D7EDBC
:103B4000007A9FED197AF4EEC77AF1EE10FA01D8F7
:103B500008230BE0D7ED007A9FED147AF4EEC77AD4
:103B6000F1EE10FA01D8092300E00A23FB737B6809
:103B70001C33FA7B1146184600F056FA0346002B18
:103B800002D04FF0FF3300E0002318461037BD4647
:103B900080BD00BF000050420000D04200005043F2
:103BA0000080D043004050440060D0440050504555
:103BB00080B483B000AF786087ED000AD7ED007A5B
:103BC000B2EE097AF4EEC77AF1EE10FA01D80123C9
:103BD00058E0D7ED007AB3EE0A7AF4EEC77AF1EE48
:103BE00010FA01D802234DE0D7ED007A9FED2A7A32
:103BF000F4EEC77AF1EE10FA01D8032342E0D7EDD4
:103C0000007A9FED267AF4EEC77AF1EE10FA01D829
:103C1000042337E0D7ED007A9FED217AF4EEC77ADE
:103C2000F1EE10FA01D805232CE0D7ED007A9FEDD4
:103C30001D7AF4EEC77AF1EE10FA01D8062321E0DE
:103C4000D7ED007A9FED187AF4EEC77AF1EE10FA0C
:103C500001D8072316E0D7ED007A9FED147AF4EE31
:103C6000C77AF1EE10FA01D808230BE0D7ED007AFD
:103C70009FED0F7AF4EEC77AF1EE10FA01D809231E
:103C800000E00A237A6882F82C30002318460C37AB
:103C9000BD465DF8047B7047000050420000D042F2
:103CA000000050430080D043004050440060D044A6
:103CB0000050504590B587B000AFF8607A601A4662
:103CC0000B46FB7213463B81FB687B617B695C6939
:103CD0007B691B7B98B2FB7A99B23B897A68A047D3
:103CE000034618461C37BD4690BD90B587B000AF5F
:103CF000F8607A601A460B46FB7213463B81FB68FC
:103D00007B617B691C697B691B7B98B2FB7A99B2EA
:103D10003B897A68A047034618461C37BD4690BDCC
:103D200090B587B000AFF8607A601A460B46FB7218
:103D300013463B81FB685C68FB6898683B89F97AAD
:103D40007A68A04778617B6918461C37BD4690BDEC
:103D500090B587B000AFF8607A601A460B46FB72E8
:103D600013463B81FB681C68FB6898683B89F97ABD
:103D70007A68A04778617B6918461C37BD4690BDBC
:103D800080B584B000AF78600B46FB7007F1080285
:103D9000012310217868FFF7C3FFF860FB68002B50
:103DA0000FD1FB7803F00303DAB23B7A62F38303AB
:103DB0003B7207F10802012310217868FFF7C8FF62
:103DC000F860FB6818461037BD4680BD80B584B0EA
:103DD00000AF7860396007F108020123102178688C
:103DE000FFF79EFFF8603B7AC3F38103DBB2032B3E
:103DF0001AD801A252F823F0093E0008113E00082B
:103E0000193E0008213E00083B6800221A700FE0AE
:103E10003B6801221A700BE03B6802221A7007E02F
:103E20003B6803221A7003E03B6800221A7000BF4F
:103E3000FB6818461037BD4680BD00BF80B584B012
:103E400000AF78600B46FB7007F1080201231021D8
:103E50007868FFF765FFF860FB68002B0FD1FB78EF
:103E600003F00F03DAB23B7A62F307133B7207F1F8
:103E70000802012310217868FFF76AFFF860FB68E9
:103E800018461037BD4680BD80B584B000AF78605D
:103E9000396007F10802012310217868FFF740FF1D
:103EA000F8603B7AC3F30313DBB20B2B4AD801A2B1
:103EB00052F823F0E53E0008ED3E0008F53E00080C
:103EC000FD3E0008053F00080D3F0008153F0008B3
:103ED0001D3F0008253F00082D3F0008353F000822
:103EE0003D3F00083B6800221A702FE03B6801222A
:103EF0001A702BE03B6802221A7027E03B6803220D
:103F00001A7023E03B6804221A701FE03B68052208
:103F10001A701BE03B6806221A7017E03B68072204
:103F20001A7013E03B6808221A700FE03B68092200
:103F30001A700BE03B680A221A7007E03B680B22FC
:103F40001A7003E03B6800221A7000BFFB68184635
:103F50001037BD4680BD00BF80B584B000AF78602B
:103F60000B46FB7007F10802012311217868FFF767
:103F7000D7FEF860FB68002B0FD1FB7803F0070336
:103F8000DAB23B7A62F343033B7207F10802012382
:103F900011217868FFF7DCFEF860FB6818461037DF
:103FA000BD4680BD80B584B000AF7860396007F150
:103FB0000802012311217868FFF7B2FEF8603B7A0E
:103FC000C3F34203DBB2062B24D801A252F823F03C
:103FD000ED3F0008F53F0008FD3F000815400008D0
:103FE00005400008154000080D4000083B6800220D
:103FF0001A7013E03B6801221A700FE03B6802223E
:104000001A700BE03B6804221A7007E03B68062236
:104010001A7003E03B6800221A7000BFFB68184664
:104020001037BD4680BD00BF80B584B000AF78605A
:104030000B46FB7007F10802012311217868FFF796
:104040006FFEF860FB68002B0FD1FB7803F00F03C5
:10405000DAB23B7A62F307133B7207F108020123DD
:1040600011217868FFF774FEF860FB681846103776
:10407000BD4680BD80B584B000AF7860396007F17F
:104080000802012311217868FFF74AFEF8603B7AA5
:10409000C3F30313DBB20A2B44D801A252F823F076
:1040A000CD400008D5400008DD400008E54000088C
:1040B000ED400008F5400008FD40000805410008FB
:1040C0000D410008154100081D4100083B68002211
:1040D0001A702BE03B6801221A7027E03B6802222D
:1040E0001A7023E03B6803221A701FE03B68042229
:1040F0001A701BE03B6805221A7017E03B68062225
:104100001A7013E03B6807221A700FE03B68082220
:104110001A700BE03B6809221A7007E03B680A221C
:104120001A7003E03B6800221A7000BFFB68184653
:104130001037BD4680BD00BF80B584B000AF786049
:104140000B46FB7007F10802012312217868FFF784
:10415000E7FDF860FB68002B0FD1FB7803F001034B
:10416000DAB23B7A62F386133B7207F1080201234D
:1041700012217868FFF7ECFDF860FB6818461037ED
:10418000BD4680BD80B584B000AF7860396006233D
:104190003A6822217868FFF7C3FDF860FB6818468B
:1041A0001037BD4680BD80B584B000AF78603960FF
:1041B00006233A6828217868FFF7B2FDF860FB68AB
:1041C00018461037BD4680BD80B584B000AF78601A
:1041D000396001233A680F217868FFF7A1FDF86084
:1041E000FB6818461037BD4680BD80B584B000AF6F
:1041F00078600B46FB7007F10802012312217868F2
:10420000FFF78EFDF860FB68002B0FD1FB7803F001
:104210000103DAB23B7A62F382033B7207F10802D0
:10422000012312217868FFF793FDF860FB681846B8
:104230001037BD4680BD80B584B000AF78600B46B6
:10424000FB7007F1080201230A217868FFF768FD77
:10425000F860FB68002B0FD1FB7803F00703DAB29C
:104260003B7A62F302033B7207F1080201230A2141
:104270007868FFF76DFDF860FB6818461037BD469B
:1042800080BD000080B58EB000AF7860396000233B
:104290007B6301233B630023BB627B68012B36D029
:1042A000012B02D3022B64D095E0386800F024F98A
:1042B0000346002B02D04FF0FF33CCE0684A7B6806
:1042C00052F82330DB6867497A6851F8222007F1F9
:1042D0000C01104698470346002B02D06FF00603EE
:1042E000B9E03B7B012B03D1BB6A43F00203BB6205
:1042F0007B7B012B03D1BB6A43F00103BB62BB7B19
:10430000012B6CD1BB6A43F00403BB6267E03868E1
:1043100000F0AEF90346002B02D04FF0FF339AE0D5
:104320004F4A7B6852F82330DB684E497A6851F86F
:10433000222007F10C01104698470346002B02D0BB
:104340006FF0060387E03B7B012B03D1BB6A43F090
:104350000203BB627B7B012B03D1BB6A43F00103E9
:10436000BB62BB7B012B3CD1BB6A43F00403BB6245
:1043700037E0386800F020FA0346002B02D04FF0F7
:10438000FF3368E0364A7B6852F82330DB683549F2
:104390007A6851F8222007F10C011046984703462D
:1043A000002B02D06FF0060355E03B7B012B03D1BD
:1043B000BB6A43F00203BB627B7B012B03D1BB6A68
:1043C00043F00103BB62BB7B012B0CD1BB6A43F002
:1043D0000403BB6207E06FF001037B6304E000BFEE
:1043E00002E000BF00E000BF7B6B002B01D07B6BC5
:1043F00031E00023FB622AE03A683B6B1A403B6BDA
:104400009A421ED1BA6A3B6B1A403B6B9A4218D152
:10441000154A3B6B52F8231014487A6813465B0028
:1044200013440B4450F823301B680E497A6851F846
:104430002220104698470346002B02D06FF0040359
:1044400009E03B6B5B003B63FB6A0133FB62FB6A89
:10445000022BD1D97B6B18463837BD4680BD00BFD3
:104460009C010020E4790020C00000207801002099
:1044700080B586B000AFF860B9607A60FB68022B47
:1044800003D96FF001037B6129E0174AFB6852F8FA
:104490002320BB681A40BB689A421DD1134ABB68EF
:1044A00052F823101248FA6813465B0013440B4479
:1044B00050F82330DB690F49FA6851F822207968F7
:1044C000104698470346002B03D06FF004037B612E
:1044D00005E000237B6102E06FF001037B617B69F3
:1044E00018461837BD4680BDA8010020C000002036
:1044F00078010020E479002080B592B000AF7860A8
:1045000000237B6400233B63D72387F834304A4B76
:10451000BB624A4BFB624A4BFB634A4BBB634A4B51
:104520003B6407F1280319464848FEF709FC034697
:10453000002B03D06FF006037B6477E007F12703BD
:1045400019464248FEF7F2FC0346002B03D06FF0F9
:1045500006037B646AE097F82730682B03D06FF07E
:1045600006037B6462E007F1080319463748FEF74B
:10457000F3FC7B7A1A463B7A5B001A43BB7A9B00BA
:104580001343334A1360334B304A1A60324B334A79
:104590001A607B6C002B1DD17B6803F00103002B9C
:1045A00018D07B7A012B15D12D4B5B682D4A2E49F3
:1045B00042F82310284B1B681B68264A12681046D5
:1045C00098470346002B03D06FF004037B6401E09F
:1045D00000237B647B6C002B1DD17B6803F00203FE
:1045E000002B18D03B7A012B15D11D4B9B681D4A1F
:1045F0001E4942F82310184B1B681B68154A1268A5
:10460000104698470346002B03D06FF004037B64E9
:1046100001E000237B647B6C002B07D17B6803F0F7
:104620000403002B02D06FF004037B647B6C1846FC
:104630004837BD4680BD00BF750C0008F10C00086E
:10464000A50D0008410D0008090E0008B401002066
:10465000A8010020E47900209C01002068000020CF
:10466000C0000020780100209C000020780000207D
:1046700080B592B000AF786000237B6400233B6379
:10468000332387F834303F4BBB623F4BFB623F4BD9
:10469000FB633F4BBB633F4B3B6407F12803194669
:1046A0003D48FCF74BFC0346002B03D06FF006039C
:1046B0007B6462E007F1270319463748FCF728FDC1
:1046C0000346002B03D06FF006037B6455E097F898
:1046D0002730442B03D06FF006037B644DE007F1D5
:1046E000080319462C48FCF729FD7B7A1A463B7AC9
:1046F0005B001A43BB7A9B001343284A5360284B44
:10470000254A5A60274B284A5A607B6C002B1ED1E1
:104710007B6803F00203002B19D03B7A012B16D1E2
:10472000224B9B68224A0333224942F823101D4B37
:104730005B681B681A4A5268104698470346002B6C
:1047400003D06FF004037B6401E000237B647B6C87
:10475000002B07D17B6803F00103002B02D06FF020
:1047600004037B647B6C002B07D17B6803F004039C
:10477000002B02D06FF004037B647B6C1846483733
:10478000BD4680BD750C0008F10C0008A50D0008A1
:10479000410D0008090E0008E4010020A8010020D6
:1047A000E47900209C01002000000020C0000020CF
:1047B000780100201000002080B592B000AF786032
:1047C00000237B6400233B633D2387F834303F4B59
:1047D000BB623F4BFB623F4BFB633F4BBB633F4BBB
:1047E0003B6407F1280319463D48FDF775FE034673
:1047F000002B03D06FF006037B6462E007F1270310
:1048000019463748FDF731FF0346002B03D06FF000
:1048100006037B6455E097F82730402B03D06FF0F8
:1048200006037B644DE007F1080319462C48FDF7A9
:1048300033FF7B7A1A463B7A5B001A43BB7A9B00B4
:104840001343284A9360284B254A9A60274B284AED
:104850009A607B6C002B1ED17B6803F00403002B55
:1048600019D0BB7A012B16D1224B1B69224A063381
:10487000224942F823101D4B9B681B681A4A926814
:10488000104698470346002B03D06FF004037B6467
:1048900001E000237B647B6C002B07D17B6803F075
:1048A0000203002B02D06FF004037B647B6C002BAF
:1048B00007D17B6803F00103002B02D06FF00403E3
:1048C0007B647B6C18464837BD4680BD750C00087C
:1048D000F10C0008A50D0008410D0008090E0008A4
:1048E00018020020A8010020E47900209C0100208B
:1048F00034000020C0000020780100204400002087
:1049000080B400AF174A174BD3F8883043F47003D4
:10491000C2F88830144A144B1B6843F0010313603B
:10492000114B00229A60104A0F4B1B6823F0A853CA
:1049300023F4102313600C4B4FF48052DA600A4AC0
:10494000094B1B6823F480231360074B00229A61F4
:10495000044B4FF000629A6000BFBD465DF8047BD7
:10496000704700BF00ED00E00010024080B582B04B
:1049700000AF0023FB710C4A0B4B1B6843F48073A0
:104980001360032000F0DBF80020FCF7F9F8034681
:10499000002B02D00123FB7101E0FCF787F8FB79C3
:1049A00018460837BD4680BD0020024080B400AFE5
:1049B000054B1A68054B1B681344034A136000BF7C
:1049C000BD465DF8047B7047F0790020DC000020D4
:1049D00080B400AF034B1B681846BD465DF8047BEE
:1049E000704700BFF079002080B485B000AF7860D8
:1049F0007B6803F00703FB600C4BDB68BB60BA68A5
:104A00004FF6FF031340BB60FB681A02BB681343F9
:104A100043F0BF6343F40033BB60044ABB68D36018
:104A200000BF1437BD465DF8047B704700ED00E021
:104A300080B400AF044BDB681B0A03F00703184681
:104A4000BD465DF8047B704700ED00E080B483B0A4
:104A500000AF0346FB7197F90730002B0BDB0949C8
:104A600097F907305B09FA7902F01F02012000FA7A
:104A700002F241F8232000BF0C37BD465DF8047BED
:104A8000704700BF00E100E080B483B000AF034690
:104A90003960FB7197F90730002B0ADB0D4997F954
:104AA00007303A68D2B21201D2B20B4483F8002325
:104AB0000AE00949FB7903F00F03043B3A68D2B2DC
:104AC0001201D2B20B441A7600BF0C37BD465DF816
:104AD000047B704700E100E000ED00E080B489B0A5
:104AE00000AFF860B9607A60FB6803F00703FB6110
:104AF000FB69C3F10703042B28BF0423BB61FB69D7
:104B00000433062B02D9FB69033B00E000237B61E1
:104B10000122BB6902FA03F35A1EBB681A407B6983
:104B20009A4001217B6901FA03F3591E7B680B400F
:104B3000134318462437BD465DF8047B704780B5A3
:104B400082B000AF78607868FFF74EFF00BF08378B
:104B5000BD4680BD80B586B000AF0346B9607A60BF
:104B6000FB7300237B61FFF763FF78617A68B968A4
:104B70007869FFF7B3FF024697F90F3011461846E0
:104B8000FFF782FF00BF1837BD4680BD80B582B0F9
:104B900000AF0346FB7197F907301846FFF756FF41
:104BA00000BF0837BD4680BD80B487B000AF7860D5
:104BB000396000237B6154E13B681A6801217B69FD
:104BC00001FA03F31340FB60FB68002B00F0468101
:104BD0003B685B68022B03D03B685B68122B23D1D8
:104BE0007B69DA087B68083253F822303B617B69C5
:104BF00003F007039B000F2202FA03F3DB433A6939
:104C000013403B613B681A697B6903F007039B0013
:104C100002FA03F33A6913433B617B69DA087B6864
:104C20000832396943F822107B681B683B617B6955
:104C30005B00032202FA03F3DB433A6913403B6152
:104C40003B685B6803F003027B695B0002FA03F3D5
:104C50003A6913433B617B683A691A603B685B6859
:104C6000012B0BD03B685B68022B07D03B685B686D
:104C7000112B03D03B685B68122B30D17B689B689B
:104C80003B617B695B00032202FA03F3DB433A6971
:104C900013403B613B68DA687B695B0002FA03F30F
:104CA0003A6913433B617B683A699A607B685B6849
:104CB0003B6101227B6902FA03F3DB433A6913404B
:104CC0003B613B685B681B0903F001027B6902FAE8
:104CD00003F33A6913433B617B683A695A607B6826
:104CE000DB683B617B695B00032202FA03F3DB4371
:104CF0003A6913403B613B689A687B695B0002FA42
:104D000003F33A6913433B617B683A69DA603B68B5
:104D10005B6803F08053002B00F0A080584A584B8A
:104D20001B6E43F001031366554B1B6E03F001032A
:104D3000BB60BB68534A7B699B08023352F823303F
:104D40003B617B6903F003039B000F2202FA03F32C
:104D5000DB433A6913403B617B68B3F1904F19D054
:104D60007B68494A934213D07B68484A93420DD0EE
:104D70007B68474A934207D07B68464A934201D1F9
:104D8000042308E0072306E0032304E0022302E0F3
:104D9000012300E000237A6902F0030292009340AD
:104DA0003A6913433B6137497B699B0802333A698F
:104DB00041F82320384B1B683B61FB68DB433A69B1
:104DC00013403B613B685B6803F48033002B03D0E6
:104DD0003A69FB6813433B612F4A3B6913602E4BD2
:104DE0005B683B61FB68DB433A6913403B613B68AE
:104DF0005B6803F40033002B03D03A69FB6813436C
:104E00003B61254A3B695360234B9B683B61FB68D0
:104E1000DB433A6913403B613B685B6803F48013F2
:104E2000002B03D03A69FB6813433B611A4A3B6984
:104E30009360194BDB683B61FB68DB433A691340C5
:104E40003B613B685B6803F40013002B03D03A69B5
:104E5000FB6813433B61104A3B69D3607B690133B4
:104E60007B613B681A687B6922FA03F3002B7FF4AD
:104E7000A3AE00BF1C37BD465DF8047B704700BF82
:104E800000100240000001400004004800080048F3
:104E9000000C0048001000480004014080B487B0B6
:104EA00000AF7860396000237B61B7E001227B6945
:104EB0009A403B6813403B613B69002B00F0AB809C
:104EC0005D4A7B699B08023352F82330FB607B69A3
:104ED00003F003039B000F2202FA03F3FA68134066
:104EE000FB607B68B3F1904F19D07B68534A9342C3
:104EF00013D07B68524A93420DD07B68514A93424B
:104F000007D07B68504A934201D1042308E007236D
:104F100006E0032304E0022302E0012300E0002373
:104F20007A6902F00302920003FA02F2FB689A42E5
:104F300032D14649454B1A683B69DB4313400B604D
:104F40004249424B5A683B69DB4313404B603F493F
:104F50003E4B9A683B69DB4313408B603B493B4BBC
:104F6000DA683B69DB431340CB607B6903F00303E2
:104F70009B000F2202FA03F3FB602F487B699B081A
:104F80002D497A699208023251F82210FA68D24308
:104F90000A40023340F823207B681A687B695B0073
:104FA000032101FA03F31A437B681A607B69DA086C
:104FB0007B69D9087B68083153F821107B6903F0BD
:104FC00007039B000F2000FA03F3DB4319407B68C3
:104FD000083243F822107B689A687B695B000321E2
:104FE00001FA03F3DB431A407B689A607B685A68D6
:104FF00001217B6901FA03F3DB431A407B685A60A5
:105000007B68DA687B695B00032101FA03F3DB4309
:105010001A407B68DA607B6901337B613A687B699F
:1050200022FA03F3002B7FF441AF00BF1C37BD46CB
:105030005DF8047B704700BF000001400004004899
:1050400000080048000C004800100048000401401F
:1050500080B483B000AF78600B467B8013467B70D2
:105060007B78002B03D07A887B689A6102E07A888B
:105070007B689A6200BF0C37BD465DF8047B7047C1
:1050800080B483B000AF78600B467B807B685A6940
:105090007B881340002B03D07A887B689A6202E0F9
:1050A0007A887B689A6100BF0C37BD465DF8047B47
:1050B000704780B582B000AF78607B68002B01D16B
:1050C000012380E07B6893F84130DBB2002B06D1EE
:1050D0007B68002283F84020786800F0A7F87B689E
:1050E000242283F841207B681B687A681268126862
:1050F00022F001021A607B681B687A68526822F00D
:1051000070621A617B681B687A681268926822F480
:1051100000429A607B68DB68012B07D17B681B68C3
:105120007A68926842F400429A6006E07B681B68E5
:105130007A68926842F404429A607B68DB68022BCA
:1051400004D17B681B684FF400625A607B681A6860
:105150007B681B685B6843F0007343F40043536053
:105160007B681B687A681268D26822F40042DA60B1
:105170007B681B687A6811697A68526911437A689A
:10518000926912020A43DA607B681B687A68D16907
:105190007A68126A0A431A607B681B687A68126828
:1051A000126842F001021A607B6800225A647B6830
:1051B000202283F841207B6800221A637B6800224A
:1051C00083F84220002318460837BD4680BD80B5CD
:1051D00082B000AF78607B68002B01D1012321E011
:1051E0007B68242283F841207B681B687A681268F8
:1051F000126822F001021A60786800F021F87B68DA
:1052000000225A647B68002283F841207B680022D8
:105210001A637B68002283F842207B68002283F8AF
:105220004020002318460837BD4680BD80B483B0B7
:1052300000AF786000BF0C37BD465DF8047B704757
:1052400080B483B000AF786000BF0C37BD465DF816
:10525000047B704780B588B002AFF86008461146FD
:105260001A4603467B810B463B811346FB80FB6855
:1052700093F84130DBB2202B40F0F9803B6A002BE1
:1052800002D0BB8C002B05D1FB684FF400725A642E
:105290000123EDE0FB6893F84030012B01D102239C
:1052A000E6E0FB68012283F84020FFF791FB78617C
:1052B0007B690093192301224FF40041F86800F044
:1052C000DDFA0346002B01D00123D1E0FB68212247
:1052D00083F84120FB68402283F84220FB680022CB
:1052E0005A64FB683A6A5A62FB68BA8C5A85FB6852
:1052F00000225A63F8883A8979897B690193BB6AED
:1053000000930346F86800F0EDF90346002B05D042
:10531000FB68002283F840200123A9E0FB685B8D35
:105320009BB2FF2B0ED9FB68FF221A85FB681B8DF1
:10533000DAB27989002300934FF08073F86800F0A7
:10534000BFFB0FE0FB685B8D9AB2FB681A85FB68B8
:105350001B8DDAB27989002300934FF00073F8684F
:1053600000F0AEFB7A69B96AF86800F0C7FA034644
:10537000002B01D001237BE0FB681B68FA68526AAE
:1053800012789A62FB685B6A5A1CFB685A62FB6877
:105390005B8D9BB2013B9AB2FB685A85FB681B8D03
:1053A000013B9AB2FB681A85FB685B8D9BB2002BB0
:1053B00034D0FB681B8D002B30D17B690093BB6A16
:1053C00000228021F86800F059FA0346002B01D032
:1053D00001234DE0FB685B8D9BB2FF2B0ED9FB6870
:1053E000FF221A85FB681B8DDAB2798900230093AE
:1053F0004FF08073F86800F063FB0FE0FB685B8D93
:105400009AB2FB681A85FB681B8DDAB27989002392
:1054100000934FF00073F86800F052FBFB685B8D5F
:105420009BB2002B9ED17A69B96AF86800F0A6FA9F
:105430000346002B01D001231AE0FB681B682022E1
:10544000DA61FB681A68FB681B6859680A4B0B40F5
:105450005360FB68202283F84120FB68002283F818
:105460004220FB68002283F84020002300E0022352
:1054700018461837BD4680BD00E800FE80B588B0EC
:1054800002AFF860084611461A4603467B810B4678
:105490003B811346FB80FB6893F84130DBB2202B45
:1054A00040F0FD803B6A002B02D0BB8C002B05D165
:1054B000FB684FF400725A640123F1E0FB6893F833
:1054C0004030012B01D10223EAE0FB68012283F87E
:1054D0004020FFF77DFA78617B6900931923012250
:1054E0004FF40041F86800F0C9F90346002B01D0E1
:1054F0000123D5E0FB68222283F84120FB6840228B
:1055000083F84220FB6800225A64FB683A6A5A62B8
:10551000FB68BA8C5A85FB6800225A63F8883A897E
:1055200079897B690193BB6A00930346F86800F0B0
:105530002DF90346002B05D0FB68002283F840209C
:105540000123ADE0FB685B8D9BB2FF2B0ED9FB689E
:10555000FF221A85FB681B8DDAB27989524B0093C2
:105560004FF08073F86800F0ABFA0FE0FB685B8DDA
:105570009AB2FB681A85FB681B8DDAB279894A4BAF
:1055800000934FF00073F86800F09AFA7B6900937B
:10559000BB6A00220421F86800F070F90346002B72
:1055A00001D001237CE0FB685B6AFA681268526AEA
:1055B000D2B21A70FB685B6A5A1CFB685A62FB68BD
:1055C0001B8D013B9AB2FB681A85FB685B8D9BB211
:1055D000013B9AB2FB685A85FB685B8D9BB2002B3E
:1055E00034D0FB681B8D002B30D17B690093BB6AE4
:1055F00000228021F86800F041F90346002B01D019
:1056000001234DE0FB685B8D9BB2FF2B0ED9FB683D
:10561000FF221A85FB681B8DDAB27989002300937B
:105620004FF08073F86800F04BFA0FE0FB685B8D79
:105630009AB2FB681A85FB681B8DDAB27989002360
:1056400000934FF00073F86800F03AFAFB685B8D46
:105650009BB2002B9AD17A69B96AF86800F08EF98A
:105660000346002B01D001231AE0FB681B682022AF
:10567000DA61FB681A68FB681B6859680B4B0B40C2
:105680005360FB68202283F84120FB68002283F8E6
:105690004220FB68002283F84020002300E0022320
:1056A00018461837BD4680BD0024008000E800FE83
:1056B00080B483B000AF78607B6893F84130DBB290
:1056C00018460C37BD465DF8047B704780B483B044
:1056D00000AF78607B685B6C18460C37BD465DF8A0
:1056E000047B704780B586B002AFF860084611466B
:1056F0001A4603467B810B463B811346FB80FB88A1
:10570000DAB27989204B00934FF08073F86800F08B
:10571000D7F9FA69B969F86800F0F0F80346002B88
:1057200001D001232CE0FB88012B05D1FB681B680D
:105730003A89D2B29A6215E0FB681B683A89120A6C
:1057400092B2D2B29A62FA69B969F86800F0D6F8F2
:105750000346002B01D0012312E0FB681B683A8945
:10576000D2B29A62FB690093BB6900228021F8687B
:1057700000F084F80346002B01D0012300E0002351
:1057800018461037BD4680BD0020008080B586B029
:1057900002AFF860084611461A4603467B810B4665
:1057A0003B811346FB80FB88DAB27989204B00935A
:1057B0000023F86800F084F9FA69B969F86800F024
:1057C0009DF80346002B01D001232CE0FB88012B20
:1057D00005D1FB681B683A89D2B29A6215E0FB6872
:1057E0001B683A89120A92B2D2B29A62FA69B9690E
:1057F000F86800F083F80346002B01D0012312E083
:10580000FB681B683A89D2B29A62FB690093BB6954
:1058100000224021F86800F031F80346002B01D047
:10582000012300E0002318461037BD4680BD00BFAD
:105830000020008080B483B000AF78607B681B6874
:105840009B6903F00203022B03D17B681B680022D3
:105850009A627B681B689B6903F00103012B07D0E8
:105860007B681B687A681268926942F001029A614B
:1058700000BF0C37BD465DF8047B704780B584B02F
:1058800000AFF860B9603B601346FB7122E03B68F3
:10589000B3F1FF3F1ED0FFF79BF80246BB69D21A57
:1058A0003B689A4202D83B68002B13D1FB685B6CC3
:1058B00043F02002FB685A64FB68202283F84120F1
:1058C000FB68002283F84220FB68002283F8402016
:1058D00001230FE0FB681B689A69BB681A40BB682C
:1058E0009A420CBF01230023DBB21A46FB799A428D
:1058F000CDD0002318461037BD4680BD80B584B09A
:1059000000AFF860B9607A602CE07A68B968F8682E
:1059100000F070F80346002B01D001232AE0BB6899
:10592000B3F1FF3F1ED0FFF753F802467B68D21A4F
:10593000BB689A4202D8BB68002B13D1FB685B6C32
:1059400043F02002FB685A64FB68202283F8412060
:10595000FB68002283F84220FB68002283F8402085
:10596000012307E0FB681B689B6903F00203022B1D
:10597000CBD1002318461037BD4680BD80B584B01A
:1059800000AFF860B9607A6028E07A68B968F868B2
:1059900000F030F80346002B01D0012326E0FFF78A
:1059A00017F802467B68D21ABB689A4202D8BB68D5
:1059B000002B13D1FB685B6C43F02002FB685A6438
:1059C000FB68202283F84120FB68002283F84220F4
:1059D000FB68002283F84020012307E0FB681B6876
:1059E0009B6903F02003202BCFD1002318461037EA
:1059F000BD4680BD80B584B000AFF860B9607A6004
:105A0000FB681B689B6903F01003102B51D122E047
:105A1000BB68B3F1FF3F1ED0FEF7DAFF02467B689A
:105A2000D21ABB689A4202D8BB68002B13D1FB681C
:105A30005B6C43F02002FB685A64FB68202283F809
:105A40004120FB68002283F84220FB68002283F893
:105A5000402001232EE0FB681B689B6903F02003B4
:105A6000202BD5D1FB681B681022DA61FB681B680C
:105A70002022DA61F868FFF7DDFEFB681A68FB6830
:105A80001B6859680D4B0B405360FB685B6C43F01F
:105A90000402FB685A64FB68202283F84120FB68FB
:105AA000002283F84220FB68002283F84020012373
:105AB00000E0002318461037BD4680BD00E800FE18
:105AC00080B485B000AFF8607B600B467B811346E5
:105AD0007B72FB681A68FB681B685968BB695B0DC1
